{
  "_format": "hh-sol-artifact-1",
  "contractName": "CrowdFunding",
  "sourceName": "contracts/CrowdFunding.sol",
  "abi": [
    {
      "inputs": [
        {
          "internalType": "uint256",
          "name": "",
          "type": "uint256"
        }
      ],
      "name": "campaigns",
      "outputs": [
        {
          "internalType": "address",
          "name": "owner",
          "type": "address"
        },
        {
          "internalType": "string",
          "name": "title",
          "type": "string"
        },
        {
          "internalType": "string",
          "name": "description",
          "type": "string"
        },
        {
          "internalType": "uint256",
          "name": "target",
          "type": "uint256"
        },
        {
          "internalType": "uint256",
          "name": "deadline",
          "type": "uint256"
        },
        {
          "internalType": "uint256",
          "name": "amountCollected",
          "type": "uint256"
        }
      ],
      "stateMutability": "view",
      "type": "function"
    },
    {
      "inputs": [
        {
          "internalType": "address",
          "name": "_owner",
          "type": "address"
        },
        {
          "internalType": "string",
          "name": "_title",
          "type": "string"
        },
        {
          "internalType": "string",
          "name": "_description",
          "type": "string"
        },
        {
          "internalType": "uint256",
          "name": "_target",
          "type": "uint256"
        },
        {
          "internalType": "uint256",
          "name": "_deadline",
          "type": "uint256"
        }
      ],
      "name": "createCampaign",
      "outputs": [
        {
          "internalType": "uint256",
          "name": "",
          "type": "uint256"
        }
      ],
      "stateMutability": "nonpayable",
      "type": "function"
    },
    {
      "inputs": [
        {
          "internalType": "uint256",
          "name": "_id",
          "type": "uint256"
        }
      ],
      "name": "donateToCampaign",
      "outputs": [],
      "stateMutability": "payable",
      "type": "function"
    },
    {
      "inputs": [],
      "name": "getCampaigns",
      "outputs": [
        {
          "components": [
            {
              "internalType": "address",
              "name": "owner",
              "type": "address"
            },
            {
              "internalType": "string",
              "name": "title",
              "type": "string"
            },
            {
              "internalType": "string",
              "name": "description",
              "type": "string"
            },
            {
              "internalType": "uint256",
              "name": "target",
              "type": "uint256"
            },
            {
              "internalType": "uint256",
              "name": "deadline",
              "type": "uint256"
            },
            {
              "internalType": "uint256",
              "name": "amountCollected",
              "type": "uint256"
            },
            {
              "internalType": "address[]",
              "name": "donators",
              "type": "address[]"
            },
            {
              "internalType": "uint256[]",
              "name": "donations",
              "type": "uint256[]"
            }
          ],
          "internalType": "struct CrowdFunding.Campaign[]",
          "name": "",
          "type": "tuple[]"
        }
      ],
      "stateMutability": "view",
      "type": "function"
    },
    {
      "inputs": [
        {
          "internalType": "uint256",
          "name": "_id",
          "type": "uint256"
        }
      ],
      "name": "getDonators",
      "outputs": [
        {
          "internalType": "address[]",
          "name": "",
          "type": "address[]"
        },
        {
          "internalType": "uint256[]",
          "name": "",
          "type": "uint256[]"
        }
      ],
      "stateMutability": "view",
      "type": "function"
    },
    {
      "inputs": [],
      "name": "numberOfCampaigns",
      "outputs": [
        {
          "internalType": "uint256",
          "name": "",
          "type": "uint256"
        }
      ],
      "stateMutability": "view",
      "type": "function"
    },
    {
      "inputs": [
        {
          "internalType": "address",
          "name": "to",
          "type": "address"
        }
      ],
      "name": "send",
      "outputs": [],
      "stateMutability": "payable",
      "type": "function"
    }
  ],
  "bytecode": "0x6080604052600060015534801561001557600080fd5b50611911806100256000396000f3fe6080604052600436106100705760003560e01c8063141961bc1161004e578063141961bc1461011b5780633e58c58c1461015d57806342a4fda814610179578063a6b036331461019557610070565b8063075843c31461007557806307ca140d146100b25780630fa91fa9146100dd575b600080fd5b34801561008157600080fd5b5061009c60048036038101906100979190610cf3565b6101c0565b6040516100a99190610db5565b60405180910390f35b3480156100be57600080fd5b506100c76102d4565b6040516100d49190610db5565b60405180910390f35b3480156100e957600080fd5b5061010460048036038101906100ff9190610dd0565b6102da565b604051610112929190610f79565b60405180910390f35b34801561012757600080fd5b50610142600480360381019061013d9190610dd0565b6103ea565b6040516101549695949392919061103e565b60405180910390f35b610177600480360381019061017291906110ad565b610556565b005b610193600480360381019061018e9190610dd0565b610606565b005b3480156101a157600080fd5b506101aa610766565b6040516101b79190611389565b60405180910390f35b600080600080600154815260200190815260200160002090504281600401541061021f576040517f08c379a00000000000000000000000000000000000000000000000000000000081526004016102169061141d565b60405180910390fd5b868160000160006101000a81548173ffffffffffffffffffffffffffffffffffffffff021916908373ffffffffffffffffffffffffffffffffffffffff160217905550858160010190816102739190611649565b50848160020190816102859190611649565b5083816003018190555082816004018190555060008160050181905550600160008154809291906102b59061174a565b9190505550600180546102c89190611792565b91505095945050505050565b60015481565b6060806000808481526020019081526020016000206006016000808581526020019081526020016000206007018180548060200260200160405190810160405280929190818152602001828054801561038857602002820191906000526020600020905b8160009054906101000a900473ffffffffffffffffffffffffffffffffffffffff1673ffffffffffffffffffffffffffffffffffffffff168152602001906001019080831161033e575b50505050509150808054806020026020016040519081016040528092919081815260200182805480156103da57602002820191906000526020600020905b8154815260200190600101908083116103c6575b5050505050905091509150915091565b60006020528060005260406000206000915090508060000160009054906101000a900473ffffffffffffffffffffffffffffffffffffffff16908060010180546104339061146c565b80601f016020809104026020016040519081016040528092919081815260200182805461045f9061146c565b80156104ac5780601f10610481576101008083540402835291602001916104ac565b820191906000526020600020905b81548152906001019060200180831161048f57829003601f168201915b5050505050908060020180546104c19061146c565b80601f01602080910402602001604051908101604052809291908181526020018280546104ed9061146c565b801561053a5780601f1061050f5761010080835404028352916020019161053a565b820191906000526020600020905b81548152906001019060200180831161051d57829003601f168201915b5050505050908060030154908060040154908060050154905086565b60008173ffffffffffffffffffffffffffffffffffffffff163460405161057c906117f7565b60006040518083038185875af1925050503d80600081146105b9576040519150601f19603f3d011682016040523d82523d6000602084013e6105be565b606091505b5050905080610602576040517f08c379a00000000000000000000000000000000000000000000000000000000081526004016105f990611858565b60405180910390fd5b5050565b60003490506000806000848152602001908152602001600020905080600601339080600181540180825580915050600190039060005260206000200160009091909190916101000a81548173ffffffffffffffffffffffffffffffffffffffff021916908373ffffffffffffffffffffffffffffffffffffffff1602179055508060070182908060018154018082558091505060019003906000526020600020016000909190919091505560008160000160009054906101000a900473ffffffffffffffffffffffffffffffffffffffff1673ffffffffffffffffffffffffffffffffffffffff16836040516106fb906117f7565b60006040518083038185875af1925050503d8060008114610738576040519150601f19603f3d011682016040523d82523d6000602084013e61073d565b606091505b505090508015610760578282600501546107579190611878565b82600501819055505b50505050565b6060600060015467ffffffffffffffff81111561078657610785610b92565b5b6040519080825280602002602001820160405280156107bf57816020015b6107ac610aaa565b8152602001906001900390816107a45790505b50905060005b600154811015610aa2576000806000838152602001908152602001600020905080604051806101000160405290816000820160009054906101000a900473ffffffffffffffffffffffffffffffffffffffff1673ffffffffffffffffffffffffffffffffffffffff1673ffffffffffffffffffffffffffffffffffffffff1681526020016001820180546108589061146c565b80601f01602080910402602001604051908101604052809291908181526020018280546108849061146c565b80156108d15780601f106108a6576101008083540402835291602001916108d1565b820191906000526020600020905b8154815290600101906020018083116108b457829003601f168201915b505050505081526020016002820180546108ea9061146c565b80601f01602080910402602001604051908101604052809291908181526020018280546109169061146c565b80156109635780601f1061093857610100808354040283529160200191610963565b820191906000526020600020905b81548152906001019060200180831161094657829003601f168201915b5050505050815260200160038201548152602001600482015481526020016005820154815260200160068201805480602002602001604051908101604052809291908181526020018280548015610a0f57602002820191906000526020600020905b8160009054906101000a900473ffffffffffffffffffffffffffffffffffffffff1673ffffffffffffffffffffffffffffffffffffffff16815260200190600101908083116109c5575b5050505050815260200160078201805480602002602001604051908101604052809291908181526020018280548015610a6757602002820191906000526020600020905b815481526020019060010190808311610a53575b505050505081525050838381518110610a8357610a826118ac565b5b6020026020010181905250508080610a9a9061174a565b9150506107c5565b508091505090565b604051806101000160405280600073ffffffffffffffffffffffffffffffffffffffff168152602001606081526020016060815260200160008152602001600081526020016000815260200160608152602001606081525090565b6000604051905090565b600080fd5b600080fd5b600073ffffffffffffffffffffffffffffffffffffffff82169050919050565b6000610b4482610b19565b9050919050565b610b5481610b39565b8114610b5f57600080fd5b50565b600081359050610b7181610b4b565b92915050565b600080fd5b600080fd5b6000601f19601f8301169050919050565b7f4e487b7100000000000000000000000000000000000000000000000000000000600052604160045260246000fd5b610bca82610b81565b810181811067ffffffffffffffff82111715610be957610be8610b92565b5b80604052505050565b6000610bfc610b05565b9050610c088282610bc1565b919050565b600067ffffffffffffffff821115610c2857610c27610b92565b5b610c3182610b81565b9050602081019050919050565b82818337600083830152505050565b6000610c60610c5b84610c0d565b610bf2565b905082815260208101848484011115610c7c57610c7b610b7c565b5b610c87848285610c3e565b509392505050565b600082601f830112610ca457610ca3610b77565b5b8135610cb4848260208601610c4d565b91505092915050565b6000819050919050565b610cd081610cbd565b8114610cdb57600080fd5b50565b600081359050610ced81610cc7565b92915050565b600080600080600060a08688031215610d0f57610d0e610b0f565b5b6000610d1d88828901610b62565b955050602086013567ffffffffffffffff811115610d3e57610d3d610b14565b5b610d4a88828901610c8f565b945050604086013567ffffffffffffffff811115610d6b57610d6a610b14565b5b610d7788828901610c8f565b9350506060610d8888828901610cde565b9250506080610d9988828901610cde565b9150509295509295909350565b610daf81610cbd565b82525050565b6000602082019050610dca6000830184610da6565b92915050565b600060208284031215610de657610de5610b0f565b5b6000610df484828501610cde565b91505092915050565b600081519050919050565b600082825260208201905092915050565b6000819050602082019050919050565b610e3281610b39565b82525050565b6000610e448383610e29565b60208301905092915050565b6000602082019050919050565b6000610e6882610dfd565b610e728185610e08565b9350610e7d83610e19565b8060005b83811015610eae578151610e958882610e38565b9750610ea083610e50565b925050600181019050610e81565b5085935050505092915050565b600081519050919050565b600082825260208201905092915050565b6000819050602082019050919050565b610ef081610cbd565b82525050565b6000610f028383610ee7565b60208301905092915050565b6000602082019050919050565b6000610f2682610ebb565b610f308185610ec6565b9350610f3b83610ed7565b8060005b83811015610f6c578151610f538882610ef6565b9750610f5e83610f0e565b925050600181019050610f3f565b5085935050505092915050565b60006040820190508181036000830152610f938185610e5d565b90508181036020830152610fa78184610f1b565b90509392505050565b610fb981610b39565b82525050565b600081519050919050565b600082825260208201905092915050565b60005b83811015610ff9578082015181840152602081019050610fde565b60008484015250505050565b600061101082610fbf565b61101a8185610fca565b935061102a818560208601610fdb565b61103381610b81565b840191505092915050565b600060c0820190506110536000830189610fb0565b81810360208301526110658188611005565b905081810360408301526110798187611005565b90506110886060830186610da6565b6110956080830185610da6565b6110a260a0830184610da6565b979650505050505050565b6000602082840312156110c3576110c2610b0f565b5b60006110d184828501610b62565b91505092915050565b600081519050919050565b600082825260208201905092915050565b6000819050602082019050919050565b600082825260208201905092915050565b600061112282610fbf565b61112c8185611106565b935061113c818560208601610fdb565b61114581610b81565b840191505092915050565b600082825260208201905092915050565b600061116c82610dfd565b6111768185611150565b935061118183610e19565b8060005b838110156111b25781516111998882610e38565b97506111a483610e50565b925050600181019050611185565b5085935050505092915050565b600082825260208201905092915050565b60006111db82610ebb565b6111e581856111bf565b93506111f083610ed7565b8060005b838110156112215781516112088882610ef6565b975061121383610f0e565b9250506001810190506111f4565b5085935050505092915050565b6000610100830160008301516112476000860182610e29565b506020830151848203602086015261125f8282611117565b915050604083015184820360408601526112798282611117565b915050606083015161128e6060860182610ee7565b5060808301516112a16080860182610ee7565b5060a08301516112b460a0860182610ee7565b5060c083015184820360c08601526112cc8282611161565b91505060e083015184820360e08601526112e682826111d0565b9150508091505092915050565b60006112ff838361122e565b905092915050565b6000602082019050919050565b600061131f826110da565b61132981856110e5565b93508360208202850161133b856110f6565b8060005b85811015611377578484038952815161135885826112f3565b945061136383611307565b925060208a0199505060018101905061133f565b50829750879550505050505092915050565b600060208201905081810360008301526113a38184611314565b905092915050565b7f54686520646561646c696e652073686f756c642062652061206461746520696e60008201527f20746865206675747572652e0000000000000000000000000000000000000000602082015250565b6000611407602c83610fca565b9150611412826113ab565b604082019050919050565b60006020820190508181036000830152611436816113fa565b9050919050565b7f4e487b7100000000000000000000000000000000000000000000000000000000600052602260045260246000fd5b6000600282049050600182168061148457607f821691505b6020821081036114975761149661143d565b5b50919050565b60008190508160005260206000209050919050565b60006020601f8301049050919050565b600082821b905092915050565b6000600883026114ff7fffffffffffffffffffffffffffffffffffffffffffffffffffffffffffffffff826114c2565b61150986836114c2565b95508019841693508086168417925050509392505050565b6000819050919050565b600061154661154161153c84610cbd565b611521565b610cbd565b9050919050565b6000819050919050565b6115608361152b565b61157461156c8261154d565b8484546114cf565b825550505050565b600090565b61158961157c565b611594818484611557565b505050565b5b818110156115b8576115ad600082611581565b60018101905061159a565b5050565b601f8211156115fd576115ce8161149d565b6115d7846114b2565b810160208510156115e6578190505b6115fa6115f2856114b2565b830182611599565b50505b505050565b600082821c905092915050565b600061162060001984600802611602565b1980831691505092915050565b6000611639838361160f565b9150826002028217905092915050565b61165282610fbf565b67ffffffffffffffff81111561166b5761166a610b92565b5b611675825461146c565b6116808282856115bc565b600060209050601f8311600181146116b357600084156116a1578287015190505b6116ab858261162d565b865550611713565b601f1984166116c18661149d565b60005b828110156116e9578489015182556001820191506020850194506020810190506116c4565b868310156117065784890151611702601f89168261160f565b8355505b6001600288020188555050505b505050505050565b7f4e487b7100000000000000000000000000000000000000000000000000000000600052601160045260246000fd5b600061175582610cbd565b91507fffffffffffffffffffffffffffffffffffffffffffffffffffffffffffffffff82036117875761178661171b565b5b600182019050919050565b600061179d82610cbd565b91506117a883610cbd565b92508282039050818111156117c0576117bf61171b565b5b92915050565b600081905092915050565b50565b60006117e16000836117c6565b91506117ec826117d1565b600082019050919050565b6000611802826117d4565b9150819050919050565b7f4661696c656420746f2073656e64204554480000000000000000000000000000600082015250565b6000611842601283610fca565b915061184d8261180c565b602082019050919050565b6000602082019050818103600083015261187181611835565b9050919050565b600061188382610cbd565b915061188e83610cbd565b92508282019050808211156118a6576118a561171b565b5b92915050565b7f4e487b7100000000000000000000000000000000000000000000000000000000600052603260045260246000fdfea2646970667358221220d2147d1c0b3941e1aa95f0088b9ca287c33a72ed64f289717f54c92ff3bfbe1c64736f6c63430008120033",
  "linkReferences": {},
  "deployedLinkReferences": {}
}